S02B0000426174746C65736869705F76322E335F5465616D5F34345F416D696C615F416C6578616E6465722E4B
S11300000C9432000C9458000C94BB020C945800CD
S11300100C9458000C9458000C9458000C946806E6
S11300200C9458000C9458000C9458000C945800EC
S11300300C9458000C94A9020C9458000C94580089
S11300400C9458000C9458000C9458000C945800CC
S11300500C945800550A580A5B0A5E0A610A640A3D
S1130060670A6A0A11241FBECFE5D8E0DEBFCDBF00
S113007014BE0FB6F894A89581B5886181BD11BCF2
S11300800FBE11E0A0E6B0E0E4E3F8E102C00590A1
S11300900D92A436B107D9F722E0A4E6B1E001C07D
S11300A01D92A838B207E1F70E94F2080C94180CCC
S11300B00C940000672B09F09FC0009711F4D898A6
S11300C008958130910511F4D998089582309105ED
S11300D011F4DA9808958330910511F4DB980895AA
S11300E08430910511F4DC9808958530910511F45C
S11300F0DD9808958630910511F4DE9808958730CF
S1130100910511F4DF9808958A30910511F4C0988F
S113011008958B30910511F4C19808958C309105A0
S113012011F4C29808958D30910511F4C39808957F
S11301308E30910511F4C49808958F30910511F40F
S1130140C59808958031910511F4C69808958131B8
S1130150910511F4C79808958431910511F4A89874
S113016008958531910511F4A99808958631910572
S113017011F4AA9808958731910511F4AB98089564
S11301808831910511F4AC9808958931910511F4E1
S1130190AD9808958A31910511F4AE9808958B3184
S11301A0910511F4AF9808958E31910511F490984A
S11301B008958F31910511F4919808958032910535
S11301C011F4929808958132910511F49398089549
S11301D08232910511F4949808958332910511F4B3
S11301E0959808958432910511F496980895859709
S11301F009F09FC097980895009711F4D89A08952C
S11302008130910511F4D99A08958230910511F441
S1130210DA9A08958330910511F4DB9A08958430B5
S1130220910511F4DC9A08958530910511F4DD9A55
S113023008958630910511F4DE9A0895873091056A
S113024011F4DF9A08958A30910511F4C09A089543
S11302508B30910511F4C19A08958C30910511F4F5
S1130260C29A08958D30910511F4C39A08958E3081
S1130270910511F4C49A08958F30910511F4C59A2B
S113028008958031910511F4C69A0895813191053C
S113029011F4C79A08958431910511F4A89A089528
S11302A08531910511F4A99A08958631910511F4C7
S11302B0AA9A08958731910511F4AB9A089588316B
S11302C0910511F4AC9A08958931910511F4AD9A10
S11302D008958A31910511F4AE9A08958B319105F0
S11302E011F4AF9A08958E31910511F4909A0895FE
S11302F08F31910511F4919A08958032910511F48A
S1130300929A08958132910511F4939A0895823254
S1130310910511F4949A08958332910511F4959AF4
S113032008958432910511F4969A0895859709F4F5
S1130330979A0895CF93C82F80FF07C061E070E0BB
S113034080E090E00E945A0006C060E070E080E027
S113035090E00E945A00C1FF07C061E070E081E0B4
S113036090E00E945A0006C060E070E081E090E0F6
S11303700E945A00C2FF07C061E070E082E090E092
S11303800E945A0006C060E070E082E090E00E94A3
S11303905A00C3FF07C061E070E083E090E00E9470
S11303A05A0006C060E070E083E090E00E945A00CA
S11303B0CF910895CF93C82F60E070E084E290E07D
S11303C00E945A008C2F0E949A0161E070E084E040
S11303D090E00E945A0087EB9BE00197F1F700C080
S11303E0000060E070E084E090E00E945A0087EB37
S11303F09BE00197F1F700C00000CF91089580E0E1
S11304000E94DA0181E00E94DA010895CF93C62F99
S1130410813059F480E8860F82958F700E94DA014A
S11304208C2F8F700E94DA010CC0823051F480EC62
S1130430860F82958F700E94DA018C2F8F700E9434
S1130440DA01CF91089580E00E949A018FE59AEE37
S11304500197F1F700C0000083E00E94DA0187E908
S11304609AE30197F1F700C0000083E00E94DA01EB
S113047087EE90E80197F1F700C0000083E00E9446
S1130480DA0182E00E94DA0182E00E94DA0188E067
S11304900E94DA0180E00E94DA018CE00E94DA0115
S11304A080E00E94DA0186E00E94DA010895CF9389
S11304B0C82F61E070E084E290E00E945A008C2F23
S11304C082958F700E949A0161E070E084E090E070
S11304D00E945A0087EB9BE00197F1F700C00000EF
S11304E060E070E084E090E00E945A0087EB9BE0BB
S11304F00197F1F700C000008C2F8F700E949A01C1
S113050061E070E084E090E00E945A0087EB9BE099
S11305100197F1F700C0000060E070E084E090E033
S11305200E945A0087EB9BE00197F1F700C000009E
S1130530CF910895CF93DF93EC018881882331F024
S113054021960E94570289918111FBCFDF91CF91AF
S113055008951F920F920FB60F9211248F938CB1AE
S113056080934702809147028CB98F910F900FBE00
S11305700F901F9018951F920F920FB60F9211248F
S11305808F9380910202813019F41092020213C0F9
S113059080910202811104C083E0809302020BC0A7
S11305A080910202833021F481E08093020203C02F
S11305B081E08093020210927301109272011092F2
S11305C07101109270018F910F900FBE0F901F90C8
S11305D0189580914702823641F498B380E18927C7
S11305E088BB579882E08093020208950F931F936B
S11305F0CF93DF93CDB7DEB72C970FB6F894DEBF59
S11306000FBECDBF8C01862F0A30110524F0642F54
S11306100E9406020FC00930110544F0642F0E94A5
S113062006028DEC90E00E949A0204C061E0640F1F
S11306300E9406024AE0BE016F5F7F4FC8010E941C
S1130640B40B0E949A022C960FB6F894DEBF0FBE2C
S1130650CDBFDF91CF911F910F9108950F931F93F9
S1130660CF9390910002981769F08B01C82F0E94D4
S1130670FF0160E081E00E940602C8010E949A0224
S1130680C0930002CF911F910F910895CF93DF93F0
S1130690EA010E940602CE010E949A02DF91CF91E4
S11306A0089561E0809174010E94A70960E080913F
S11306B074010E94B50960E0809174010E94C3092D
S11306C060E0809174010E94AE0967E0809174013A
S11306D00E94BC090895AF92BF92CF92DF92EF922D
S11306E0FF920F931F93CF93DF937C0181E0A82E99
S11306F001C0AA0C6A95EAF78A01085F1F4F0F2E02
S1130700F7E0BF2EF02DC12CD12CC1E0D0E02BC0DE
S113071022912153293048F49E01082E02C0220F51
S1130720331F0A94E2F7422B09C09E01082E02C02F
S1130730220F331F0A94E2F720954223019740F7D2
S1130740EC14FD0409F44A296B2D809174010E9474
S1130750480A8FEFC81AD80ABA94085F1F4F28E0D6
S1130760C216D10429F0F80187E090E040E0D0CF30
S1130770DF91CF911F910F91FF90EF90DF90CF9079
S1130780BF90AF9008958830910510F080E090E01C
S11307906830710510F060E070E040EC51E00E94B8
S11307A06B030895FB01605C7F4F14C09191981313
S11307B00AC040916601509167014F5F5F4F5093AB
S11307C0670140936601E217F30781F7F9012617E1
S11307D0370721F09F01285F3F4FE8CF80916601E2
S11307E090916701892B31F0109267011092660194
S11307F081E0089580E00895FC01AC01405C5F4F06
S113080013C08191803349F0809164019091650116
S113081001969093650180936401E217F30789F7C9
S1130820F9014217530721F09F01285F3F4FE9CF99
S11308308091640190916501892B31F410926701D4
S11308401092660181E0089510926501109264018E
S113085080E0089521E0209375011DBC1CBC29B7DC
S1130860206129BF2091760130917701281739073B
S1130870CCF310927501109277011092760189B72A
S11308808F7E89BF0895CF92DF92FF920F931F93BB
S1130890CF93DF9340E450E06CE370E080E891E0B4
S11308A00E94E90BE199FECFC0E8D1E00F2EF0ECF5
S11308B0CF2EF1E0DF2EF02D0F2EFDE0FF2EF02DD8
S11308C00EC089918CB98AE090E00E942A04C01776
S11308D0D107B9F7FCB8E801C016D10621F08E01A2
S11308E0085F1F4FEECF10927301109272011092A5
S11308F0710110927001DF91CF911F910F91FF90C0
S1130900DF90CF900895CF93DF93CDB7DEB7C05477
S1130910D1090FB6F894DEBF0FBECDBF80E4EBE67D
S1130920F1E0DE01119601900D928A95E1F78E01B6
S11309300F5F1F4F6E0181E4C80ED11C0F2EFDE026
S1130940BF2EF02D10C0F80181918F018CB982E384
S113095090E00E942A040E151F05A9F7BCB8870170
S1130960CE14DF0429F07801F8E0EF0EF11CEBCF90
S113097040E050E062E070E080E490E00E94F60223
S11309804AE750E060E070E081E090E00E944603B6
S113099040E450E06CE370E0CE0101960E94010C4B
S11309A0E199FECF8CB3882359F049E850E060E028
S11309B070E081E090E00E9446038CB38111F5CF92
S11309C04CE950E060E070E081E090E00E94460372
S11309D010927301109272011092710110927001C1
S11309E00E94430498E088E10FB6F894A89581BD6D
S11309F00FBE91BDFFCF04C080910202823011F47A
S1130A005F9BFACF8CB1809347028091470290E0BC
S1130A10C0970A97B0F560916000709161006F5FB4
S1130A207F4F709361006093600080914702FB01E7
S1130A30E559FE4F8083072E000C880B990B0E940A
S1130A40AE0A2DEC3CEC4CEC5FE30E94120B0E94CE
S1130A50760ADC01CB014CE050E062E070E00E94D9
S1130A60F6028091600090916100CF9751F460E0AC
S1130A7081E00E9406028BEA90E00E949A020E94A2
S1130A808304C3980895CF92DF92FF920F931F932C
S1130A90CF93DF93EC016C0180E4C80ED11C0F2EC0
S1130AA0FDE0FF2EF02D0EC089918CB982E390E019
S1130AB00E942A04C017D107B9F7FCB8E801C01690
S1130AC0D10621F08E01085F1F4FEECFDF91CF9149
S1130AD01F910F91FF90DF90CF900895DF92EF92D6
S1130AE0FF920F931F93CF93DF937C01DC01AA0F36
S1130AF0BB1FAA0FBB1FAA0FBB1F1896A40FB51FBD
S1130B0027E030E0C0E041E050E09E91913349F4A9
S1130B10CA01022E02C0880F991F0A94E2F7C82B5B
S1130B2009C0FA01022E02C0EE0FFF1F0A94E2F779
S1130B30E095CE232150310940F781E090E002C0D6
S1130B40880F991F6A95E2F7D82EF82EF09405E0E5
S1130B5010E0D7E0DE19CD294C2F6D2F8091740160
S1130B600E94480A82E390E00E942A04CF214C2F7D
S1130B706D2F809174010E94480A82E390E00E94E4
S1130B802A040150110939F7DF91CF911F910F9178
S1130B90FF90EF90DF900895EF92FF920F931F93D1
S1130BA0CF93DF938C01EB01FC01EE0FFF1FEE0FDF
S1130BB0FF1FEE0FFF1FE058FE4FE60FF71F808167
S1130BC09FEC980F993008F059C0F801EE0FFF1F01
S1130BD0EE0FFF1FEE0FFF1FE054FE4FE60FF71F4F
S1130BE08081813349F460E081E00E94060286EB53
S1130BF090E00E949A0265C042EC50E060E070E030
S1130C0081E090E00E9446037801EE0CFF1CEE0C9C
S1130C10FF1CEE0CFF1CF701E054FE4FEC0FFD1F10
S1130C2081E3808340EC51E0BE01C8010E946E055F
S1130C30C701885B9D4FC80FD91F888190E39883B3
S1130C4068E472E00E94D20381112BC08091680194
S1130C5090916901019690936901809368014DE038
S1130C6050E062E070E00E94F6024FEC50E068E071
S1130C7070E082E090E00E94460313C0803349F4A0
S1130C8045ED50E060E070E081E090E00E944603B2
S1130C9008C042EE50E060E070E081E090E00E9425
S1130CA0460388E492E00E94FC03882351F080917B
S1130CB0680190916901181619061CF485E0809367
S1130CC00202DF91CF911F910F91FF90EF90089551
S1130CD01F920F920FB60F9211248F939F938091BE
S1130CE07501882349F080917601909177010196EE
S1130CF090937701809376019F918F910F900FBE0F
S1130D000F901F9018950F931F93CF93DF9320910B
S1130D106E0130916F01409164005091650042175B
S1130D205307ECF08B01EC01F901EA59FF4F808184
S1130D30FE01EE0FFF1FEE0FFF1FEE0FFF1FE95F17
S1130D40FD4FE60FF71F80838CB988EC90E00E947A
S1130D502A0447E052E0B801CE010E946B03DF9100
S1130D60CF911F910F910895CF93DF93EC0148EE3B
S1130D7050E060E070E082E090E00E94460340E4CE
S1130D8050E06CE370E0CE010E94010CE199FECFCB
S1130D908CB3882359F049E850E060E070E082E0C9
S1130DA090E00E9446038CB38111F5CF81E08093DB
S1130DB00202DF91CF910895B0990FC08091720122
S1130DC0909173010197909373018093720187E767
S1130DD08CB988EC90E00E942A04B1990FC08091EC
S1130DE07201909173010196909373018093720143
S1130DF083E78CB988EC90E00E942A04B3990FC071
S1130E008091700190917101019790937101809389
S1130E10700181E68CB988EC90E00E942A04B299B2
S1130E200FC08091700190917101019690937101AE
S1130E308093700184E68CB988EC90E00E942A04C7
S1130E40B49910C086E68CB96091700170917101FB
S1130E5080917201909173010E94830688EC90E066
S1130E600E942A04B59913C080916E0190916F017C
S1130E70019690936F0180936E0140E050E062E030
S1130E8070E00E94F60288EC90E00E942A04B69971
S1130E901DC084EF91E00E942A04B6990FC082E637
S1130EA08CB987E092E00E94430587E092E00E94BB
S1130EB0B40688EC90E00E942A0408C087E092E01F
S1130EC00E94B40688EC90E00E942A04809172018A
S1130ED090917301089724F010927301109272019B
S1130EE08091720190917301992334F487E090E02A
S1130EF090937301809372018091700190917101BC
S1130F00089724F010927101109270018091700181
S1130F1090917101992334F487E090E090937101EA
S1130F2080937001609170017091710180917201E0
S1130F309091730147E052E00E946B030895809101
S1130F404702813651F480917001909171010197AB
S1130F5090937101809370010895809147028436C3
S1130F6051F48091700190917101019690937101F7
S1130F7080937001089580914702873751F48091DE
S1130F8072019091730101979093730180937201A0
S1130F90089580914702833751F4809172019091B2
S1130FA07301019690937301809372010895809167
S1130FB04702863659F460917001709171018091F5
S1130FC07201909173010E94CC05089580914702AB
S1130FD0883669F40E94430481E080936A0140E802
S1130FE051E060E070E080E090E00E946B030895BF
S1130FF08CE390E00E94F90B8053823058F5809185
S11310006B01811133C040EF50E060E070E081E09B
S113101090E00E94460340E450E06CE370E080E816
S113102091E00E94E90BE199FECF80E4E0E8F1E071
S1131030A8E4B2E001900D928A95E1F74FEF50E0F9
S113104060E070E081E090E00E94460381E08093DC
S11310506B010CC080916B01811108C042E151E029
S113106060E070E081E090E00E944603B0990DC01A
S11310708091720190917301019790937301809311
S1131080720188EC90E00E942A04B1990DC080910D
S11310907201909173010196909373018093720190
S11310A088EC90E00E942A04B3990DC080917001ED
S11310B0909171010197909371018093700188EC74
S11310C090E00E942A04B2990DC080917001909121
S11310D071010196909371018093700188EC90E006
S11310E00E942A04B4992BC060917001709171011F
S11310F080917201909173010E94CC0588EC90E07C
S11311000E942A0480916C0190916D010196909344
S11311106D0180936C014DE050E061E070E00E944D
S1131120F60220916C0130916D01809162009091E2
S11311306300821793071CF484E0809302020E94E8
S11311409F078091720190917301089724F0109287
S1131150730110927201809172019091730199232D
S113116034F487E090E0909373018093720180914E
S1131170700190917101089724F0109271011092FE
S113118070018091700190917101992334F487E08A
S113119090E09093710180937001109247028091C6
S11311A06A0181111EC0609170017091710180917A
S11311B07201909173010E94C30380917201909116
S11311C0730140E050E062E070E00E94F60280911A
S11311D070019091710143E050E062E070E00E9480
S11311E0F602089540E450E060E370E080EC91E0A2
S11311F00E94AD0B40E450E060E370E088E492E0CC
S11312000E94AD0B40E450E060E370E087E092E0C0
S11312100E94AD0B10BC8DE489B986E880BD88E1DD
S11312208AB9579A85B7886085BF85B7846085BFBA
S11312308BB780688BBF8FEF8ABBD5988E9A8EB59B
S113124089608EBD8FED9EE29BBD8ABD0E94230204
S11312500E94FF010E946F0A0E945103789417BAFA
S113126081E080930202C1E0809102028230F9F0B1
S113127028F4882349F0813081F039C0843019F191
S1131280D0F0853051F133C00E94E902C59A60E282
S113129071E080E00E942E03E7CFC5980E94F80712
S11312A06FE670E08C2F0E942E03579ADDCFC79A09
S11312B00E94FB04D9CF0E94DC066EE271E083E059
S11312C00E942E03D1CF88E391E00E949A0267E442
S11312D071E084E00E942E03C7CF81E591E00E9473
S11312E09A026BE571E085E00E942E03BDCFC093A6
S11312F00202BACF47E050E061E070E090E0AB98C2
S11313009B01042E02C0220F331F0A94E2F7282304
S11313103923042E02C0359527950A94E2F7222337
S113132011F0A99A01C0A998AB9A4150510938F714
S11313300895CF93811109C0C42F862FAA980E94C3
S11313407A098C2F0E947A09AA9ACF910895623063
S113135020F4462F6CE00E9499090895603120F42E
S1131360462F6AE00E9499090895623020F4462FBE
S11313706FE00E9499090895683020F4462F6BE0CD
S11313800E9499090895462F69E00E9499090895D9
S1131390462FE82FF0E0EE0FFF1FEE0FFF1FEE0FBA
S11313A0FF1FE858FE4F608361E00E949909089589
S11313B0462FE82FF0E0EE0FFF1FEE0FFF1FEE0F9A
S11313C0FF1FE858FE4F618362E00E949909089567
S11313D0462FE82FF0E0EE0FFF1FEE0FFF1FEE0F7A
S11313E0FF1FE858FE4F628363E00E949909089545
S11313F0462FE82FF0E0EE0FFF1FEE0FFF1FEE0F5A
S1131400FF1FE858FE4F638364E00E949909089522
S1131410462FE82FF0E0EE0FFF1FEE0FFF1FEE0F39
S1131420FF1FE858FE4F648365E00E949909089500
S1131430462FE82FF0E0EE0FFF1FEE0FFF1FEE0F19
S1131440FF1FE858FE4F658366E00E9499090895DE
S1131450462FE82FF0E0EE0FFF1FEE0FFF1FEE0FF9
S1131460FF1FE858FE4F668367E00E9499090895BC
S1131470462FE82FF0E0EE0FFF1FEE0FFF1FEE0FD9
S1131480FF1FE858FE4F678368E00E94990908959A
S11314900F931F93062F10E008301105E8F4642F12
S11314A0F801E65DFF4F0C94A70B0E94C80914C015
S11314B00E94D80911C00E94E8090EC00E94F809D0
S11314C00BC00E94080A08C00E94180A05C00E94A6
S11314D0280A02C00E94380A1F910F910895A19A08
S11314E0A39AA29AA998AB98AA9808950E947D0AF3
S11314F06894B1110C940C0B08950E94F10A88F0C1
S11315009F5798F0B92F9927B751B0F0E1F0660FC3
S1131510771F881F991F1AF0BA95C9F714C0B13004
S113152091F00E940B0BB1E008950C940B0B672F04
S1131530782F8827B85F39F0B93FCCF38695779533
S11315406795B395D9F73EF490958095709561951C
S11315507F4F8F4F9F4F0895E89409C097FB3EF447
S113156090958095709561957F4F8F4F9F4F9923EC
S1131570A9F0F92F96E9BB279395F695879577956A
S11315806795B795F111F8CFFAF4BB0F11F460FF2A
S11315901BC06F5F7F4F8F4F9F4F16C0882311F082
S11315A096E911C0772321F09EE8872F762F05C096
S11315B0662371F096E8862F70E060E02AF09A9531
S11315C0660F771F881FDAF7880F9695879597F926
S11315D0089557FD9058440F551F59F05F3F71F01F
S11315E04795880F97FB991F61F09F3F79F0879586
S11315F00895121613061406551FF2CF4695F1DF0F
S113160008C0161617061806991FF1CF869571059E
S1131610610508940895E894BB2766277727CB01D2
S113162097F908950E94250B0C94960B0E94880B41
S113163038F00E948F0B20F0952311F00C947F0B4F
S11316400C94850B11240C940C0B0E94E90A70F382
S1131650959FC1F3950F50E0551F629FF001729F53
S1131660BB27F00DB11D639FAA27F00DB11DAA1F62
S1131670649F6627B00DA11D661F829F2227B00DAF
S1131680A11D621F739FB00DA11D621F839FA00D3A
S1131690611D221F749F3327A00D611D231F849F8A
S11316A0600D211D822F762F6A2F11249F575040E1
S11316B09AF0F1F088234AF0EE0FFF1FBB1F661F5C
S11316C0771F881F91505040A9F79E3F510580F025
S11316D00C947F0B0C940C0B5F3FE4F3983ED4F313
S11316E0869577956795B795F795E7959F5FC1F7C9
S11316F0FE2B880F911D9695879597F9089597F974
S11317009F6780E870E060E008959FEF80EC0895A3
S113171000240A94161617061806090608950024CC
S11317200A9412161306140605060895092E039446
S1131730000C11F4882352F0BB0F40F4BF2B11F4BA
S113174060FF04C06F5F7F4F8F4F9F4F0895EE0F70
S1131750FF1F0590F491E02D0994DC0101C06D9305
S113176041505040E0F70895BB274A3031F49923A3
S113177022F4BDE2909581959F4F0C94C00BBB273A
S1131780FB015527AA27880F991FAA1FA41710F039
S1131790A41B83955051B9F7A05DAA3308F0A95D45
S11317A0A193009779F7B111B1931192CB010C94E5
S11317B0D90BDC01FC01672F71917723E1F7329794
S11317C004C07C916D9370836291AE17BF07C8F318
S11317D00895DC01CB01FC01E199FECF06C0FFBBFB
S11317E0EEBBE09A31960DB20D9241505040B8F7DD
S11317F00895E199FECF9FBB8EBBE09A99278DB3E4
S11318000895DC01CB0103C02D910E940C0C4150C2
S11318105040D0F70895262FE199FECF9FBB8EBB91
S11318202DBB0FB6F894E29AE19A0FBE0196089583
S1071830F894FFCF56
S1131834FFFF0F000900313233343536373839505D
S11318446C61792047616D6521004C6F61642043AC
S11318546F6D706C6574652100666C617368696E84
S11318646720746F20454550524F4D00666C617378
S11318746820636F6D706C657465004C6F61646996
S11318846E672E2E2E00616C72656164792068691E
S11318947400686974212020202020202020004B1B
S11318A4696C6C73006D69737321202020202020DF
S11318B420006572726F720073657474696E6700D8
S11318C44C6F6164696E6720454550524F4D005317
S11318D4746172742047616D6521202020202020CA
S11318E42000426174746C657368697020763100F9
S11318F455706C6F6164204D61702E2E2E00503231
S1131904502053686172650047414D45204F564548
S11319145220202020200047414D45204F56455257
S11319240057494E4E45522020200057494E4E45FB
S10719345221000038
S9030000FC
